:020000040800F2
:1000000000500020292900087929000879290008D2
:1000100079290008792900087929000800000000E2
:100020000000000000000000000000007929000826
:10003000792900080000000079290008D12700086C
:100040007929000879290008792900087929000808
:1000500079290008792900087929000879290008F8
:1000600079290008792900087929000879290008E8
:1000700079290008792900087929000879290008D8
:1000800079290008792900087929000879290008C8
:1000900079290008792900087929000879290008B8
:1000A00079290008792900087929000879290008A8
:1000B00079290008E9190008B51A0008792900080B
:1000C0007929000879290008792900087929000888
:1000D0007929000879290008792900087929000878
:1000E0007929000879290008000000007929000812
:1000F0007929000879290008792900087929000858
:100100007929000879290008792900087929000847
:100110007929000879290008792900087929000837
:100120007929000879290008792900087929000827
:1001300010B5054C237833B9044B13B10448AFF321
:1001400000800123237010BDF80100200000000092
:10015000145B000808B5034B1BB103490348AFF318
:10016000008008BD00000000FC010020145B0008B6
:10017000034613F8012B002AFBD1181A01387047E7
:1001800081F0004102E000BF83F0004330B54FEA48
:1001900041044FEA430594EA050F08BF90EA020FB5
:1001A0001FBF54EA000C55EA020C7FEA645C7FEA48
:1001B000655C00F0E2804FEA5454D4EB5555B8BF6B
:1001C0006D420CDD2C4480EA020281EA030382EADC
:1001D000000083EA010180EA020281EA0303362D6E
:1001E00088BF30BD11F0004F4FEA01314FF4801C41
:1001F0004CEA113102D0404261EB410113F0004F53
:100200004FEA03334CEA133302D0524263EB430309
:1002100094EA050F00F0A780A4F10104D5F1200EA7
:100220000DDB02FA0EFC22FA05F2801841F1000102
:1002300003FA0EF2801843FA05F359410EE0A5F1D6
:1002400020050EF1200E012A03FA0EFC28BF4CF007
:10025000020C43FA05F3C01851EBE37101F00045BD
:1002600007D54FF0000EDCF1000C7EEB00006EEBCA
:100270000101B1F5801F1BD3B1F5001F0CD3490854
:100280005FEA30004FEA3C0C04F101044FEA4452AB
:1002900012F5800F80F09A80BCF1004F08BF5FEA32
:1002A000500C50F1000041EB045141EA050130BD12
:1002B0005FEA4C0C404141EB0101013C28BFB1F524
:1002C000801FE9D291F0000F04BF01460020B1FA6F
:1002D00081F308BF2033A3F10B03B3F120020CDA42
:1002E0000C3208DD02F1140CC2F10C0201FA0CF020
:1002F00021FA02F10CE002F11402D8BFC2F1200C85
:1003000001FA02F120FA0CFCDCBF41EA0C0190403A
:10031000E41AA2BF01EB0451294330BD6FEA040483
:100320001F3C1CDA0C340EDC04F11404C4F120026E
:1003300020FA04F001FA02F340EA030021FA04F380
:1003400045EA030130BDC4F10C04C4F1200220FAD7
:1003500002F001FA04F340EA0300294630BD21FA15
:1003600004F0294630BD94F0000F83F4801306BFDB
:1003700081F480110134013D4EE77FEA645C18BFCF
:100380007FEA655C29D094EA050F08BF90EA020F66
:1003900005D054EA000C04BF1946104630BD91EA5E
:1003A000030F1EBF0021002030BD5FEA545C05D161
:1003B0004000494128BF41F0004130BD14F58004A0
:1003C0003CBF01F5801130BD01F0004545F0FE4114
:1003D00041F470014FF0000030BD7FEA645C1ABF49
:1003E000194610467FEA655C1CBF0B46024650EA80
:1003F000013406BF52EA033591EA030F41F40021AC
:1004000030BD00BF90F0000F04BF0021704730B531
:100410004FF4806404F132044FF000054FF0000106
:1004200050E700BF90F0000F04BF0021704730B5C7
:100430004FF4806404F1320410F0004548BF40429C
:100440004FF000013EE700BF42004FEAE2014FEAF1
:1004500031014FEA02701FBF12F07F4393F07F4FCC
:1004600081F06051704732F07F4208BF704793F0CF
:100470007F4F04BF41F40021704730B54FF46074E2
:1004800001F0004521F000411CE700BF50EA0102E5
:1004900008BF704730B54FF000050AE050EA01028E
:1004A00008BF704730B511F0004502D5404261EBFE
:1004B00041014FF4806404F132045FEA915C3FF43F
:1004C000D8AE4FF003025FEADC0C18BF03325FEADC
:1004D000DC0C18BF033202EBDC02C2F1200300FA8D
:1004E00003FC20FA02F001FA03FE40EA0E0021FAB2
:1004F00002F11444BDE600BF70B54FF0FF0C4CF4A0
:10050000E06C1CEA11541DBF1CEA135594EA0C0F51
:1005100095EA0C0F00F0DEF82C4481EA030621EA8C
:100520004C5123EA4C5350EA013518BF52EA0335C7
:1005300041F4801143F4801338D0A0FB02CE4FF079
:100540000005E1FB02E506F00042E0FB03E54FF0A9
:100550000006E1FB03569CF0000F18BF4EF0010EA1
:10056000A4F1FF04B6F5007F64F5407404D25FEA9D
:100570004E0E6D4146EB060642EAC62141EA555150
:100580004FEAC52040EA5E504FEACE2EB4F1FD0C92
:1005900088BFBCF5E06F1ED8BEF1004F08BF5FEA10
:1005A000500E50F1000041EB045170BD06F00046C2
:1005B00046EA010140EA020081EA0301B4EB5C046F
:1005C000C2BFD4EB0C0541EA045170BD41F4801167
:1005D0004FF0000E013C00F3AB8014F1360FDEBF8C
:1005E000002001F0004170BDC4F10004203C35DA68
:1005F0000C341BDC04F11404C4F1200500FA05F3EB
:1006000020FA04F001FA05F240EA020001F000428B
:1006100021F0004110EBD37021FA04F642EB060101
:100620005EEA430E08BF20EAD37070BDC4F10C042B
:10063000C4F1200500FA04F320FA05F001FA04F2EF
:1006400040EA020001F0004110EBD37041F10001DB
:100650005EEA430E08BF20EAD37070BDC4F12005E6
:1006600000FA05F24EEA020E20FA04F301FA05F24E
:1006700043EA020321FA04F001F0004121FA04F2F6
:1006800020EA020000EBD3705EEA430E08BF20EAC6
:10069000D37070BD94F0000F0FD101F00046400000
:1006A00041EB010111F4801F08BF013CF7D041EA82
:1006B000060195F0000F18BF704703F00046520086
:1006C00043EB030313F4801F08BF013DF7D043EA57
:1006D0000603704794EA0C0F0CEA135518BF95EA0D
:1006E0000C0F0CD050EA410618BF52EA4306D1D194
:1006F00081EA030101F000414FF0000070BD50EAB3
:10070000410606BF1046194652EA430619D094EA3C
:100710000C0F02D150EA013613D195EA0C0F05D126
:1007200052EA03361CBF104619460AD181EA03017A
:1007300001F0004141F0FE4141F470014FF0000032
:1007400070BD41F0FE4141F4780170BD70B54FF0CD
:10075000FF0C4CF4E06C1CEA11541DBF1CEA13554D
:1007600094EA0C0F95EA0C0F00F0A7F8A4EB05042F
:1007700081EA030E52EA03354FEA013100F0888026
:100780004FEA03334FF0805545EA131343EA1263EF
:100790004FEA022245EA111545EA10654FEA0026A4
:1007A0000EF000419D4208BF964244F1FD0404F55D
:1007B000407402D25B084FEA3202B61A65EB0305B9
:1007C0005B084FEA32024FF480104FF4002CB6EB76
:1007D000020E75EB030E22BFB61A754640EA0C00F6
:1007E0005B084FEA3202B6EB020E75EB030E22BF36
:1007F000B61A754640EA5C005B084FEA3202B6EB77
:10080000020E75EB030E22BFB61A754640EA9C0035
:100810005B084FEA3202B6EB020E75EB030E22BF05
:10082000B61A754640EADC0055EA060E18D04FEAC3
:10083000051545EA16754FEA06164FEAC30343EA63
:1008400052734FEAC2025FEA1C1CC0D111F4801F30
:100850000BD141EA00014FF000004FF0004CB6E729
:1008600011F4801F04BF01430020B4F1FD0C88BFC8
:10087000BCF5E06F3FF6AFAEB5EB030C04BFB6EBD3
:10088000020C5FEA500C50F1000041EB045170BDC6
:100890000EF0004E4EEA113114EB5C04C2BFD4EBF3
:1008A0000C0541EA045170BD41F480114FF0000E77
:1008B000013C90E645EA060E8DE60CEA135594EAF3
:1008C0000C0F08BF95EA0C0F3FF43BAF94EA0C0FF6
:1008D0000AD150EA01347FF434AF95EA0C0F7FF46B
:1008E00025AF104619462CE795EA0C0F06D152EABF
:1008F00003353FF4FDAE1046194622E750EA4106A3
:1009000018BF52EA43067FF4C5AE50EA41047FF4B3
:100910000DAF52EA43057FF4EBAE12E74FF0FF3C18
:1009200006E000BF4FF0010C02E000BF4FF0010CE9
:100930004DF804CD4FEA410C7FEA6C5C4FEA430C62
:1009400018BF7FEA6C5C1BD001B050EA410C0CBFB1
:1009500052EA430C91EA030F02BF90EA020F002013
:10096000704710F1000F91EA030F58BF994208BF7A
:1009700090422CBFD8176FEAE37040F00100704737
:100980004FEA410C7FEA6C5C02D150EA013C07D18E
:100990004FEA430C7FEA6C5CD6D152EA033CD3D0D9
:1009A0005DF8040B704700BF8446104662468C46D3
:1009B0001946634600E000BF01B5FFF7B7FF002806
:1009C00048BF10F1000F01BD4DF808EDFFF7F4FF2F
:1009D0000CBF012000205DF808FB00BF4DF808EDBA
:1009E000FFF7EAFF34BF012000205DF808FB00BFDD
:1009F0004DF808EDFFF7E0FF94BF012000205DF8FF
:100A000008FB00BF4DF808EDFFF7CEFF94BF0120B3
:100A100000205DF808FB00BF4DF808EDFFF7C4FFAC
:100A200034BF012000205DF808FB00BF4FEA410CF5
:100A30007FEA6C5C02D150EA013C0AD14FEA430CD8
:100A40007FEA6C5C02D152EA033C02D14FF0000015
:100A500070474FF0010070474FEA410212F5001253
:100A600015D211D56FF47873B3EB625212D94FEAF5
:100A7000C12343F0004343EA505311F0004F23FADF
:100A800002F018BF404270474FF00000704750EA34
:100A9000013005D111F0004008BF6FF000407047F1
:100AA0004FF00000704700BF4FEA4102B2F1E0434F
:100AB00024BFB3F5001CDCF1FE5C0DD901F0004C45
:100AC0004FEAC0024CEA5070B2F1004F40EB830095
:100AD00008BF20F00100704711F0804F21D113F1C1
:100AE0003872BCBF01F00040704741F480114FEAFA
:100AF0005252C2F11802C2F1200C10FA0CF320FA83
:100B000002F018BF40F001004FEAC1234FEAD3239F
:100B100003FA0CFC40EA0C0023FA02F34FEA430309
:100B2000CCE77FEA625307D150EA01331EBF4FF092
:100B3000FE4040F44000704701F0004040F0FE40AD
:100B400040F40000704700BF80F0004002E000BFAA
:100B500081F0004142001FBF5FEA410392EA030FA8
:100B60007FEA226C7FEA236C6AD04FEA1262D2EBF2
:100B70001363C1BFD218414048404140B8BF5B42F7
:100B8000192B88BF704710F0004F40F4000020F090
:100B90007F4018BF404211F0004F41F4000121F0A6
:100BA0007F4118BF494292EA030F3FD0A2F10102F0
:100BB00041FA03FC10EB0C00C3F1200301FA03F12E
:100BC00000F0004302D5494260EB4000B0F5000F51
:100BD00013D3B0F1807F06D340084FEA310102F110
:100BE0000102FE2A51D2B1F1004F40EBC25008BFC2
:100BF00020F0010040EA03007047490040EB00008C
:100C0000013A28BFB0F5000FEDD2B0FA80FCACF18C
:100C1000080CB2EB0C0200FA0CF0AABF00EBC250B9
:100C200052421843BCBFD0401843704792F0000FA7
:100C300081F4000106BF80F400000132013BB5E7FA
:100C40004FEA41037FEA226C18BF7FEA236C21D070
:100C500092EA030F04D092F0000F08BF08467047D5
:100C600090EA010F1CBF0020704712F07F4F04D1A3
:100C7000400028BF40F00040704712F100723CBFB6
:100C800000F50000704700F0004343F0FE4040F4E0
:100C9000000070477FEA226216BF08467FEA23639E
:100CA0000146420206BF5FEA412390EA010F40F489
:100CB000800070474FF0000304E000BF10F00043D5
:100CC00048BF40425FEA000C08BF704743F09643BC
:100CD00001464FF000001CE050EA010208BF7047D7
:100CE0004FF000030AE000BF50EA010208BF70475E
:100CF00011F0004302D5404261EB41015FEA010C73
:100D000002BF84460146002043F0B64308BFA3F16A
:100D10008053A3F50003BCFA8CF2083AA3EBC2534C
:100D200010DB01FA02FC634400FA02FCC2F120026B
:100D3000BCF1004F20FA02F243EB020008BF20F0A2
:100D40000100704702F1200201FA02FCC2F1200208
:100D500050EA4C0021FA02F243EB020008BF20EAFD
:100D6000DC7070474FF0FF0C1CEAD0521EBF1CEA2B
:100D7000D15392EA0C0F93EA0C0F6FD01A4480EA19
:100D8000010C400218BF5FEA41211ED04FF0006302
:100D900043EA501043EA5111A0FB01310CF000402E
:100DA000B1F5000F3EBF490041EAD3715B0040EA54
:100DB000010062F17F02FD2A1DD8B3F1004F40EB24
:100DC000C25008BF20F00100704790F0000F0CF0F7
:100DD000004C08BF49024CEA502040EA51207F3ABB
:100DE000C2BFD2F1FF0340EAC250704740F4000096
:100DF0004FF00003013A5DDC12F1190FDCBF00F087
:100E000000407047C2F10002410021FA02F1C2F134
:100E1000200200FA02FC5FEA310040F1000053EAD0
:100E20004C0308BF20EADC70704792F0000F00F01E
:100E3000004C02BF400010F4000F013AF9D040EA24
:100E40000C0093F0000F01F0004C02BF490011F4B8
:100E5000000F013BF9D041EA0C018FE70CEAD153B6
:100E600092EA0C0F18BF93EA0C0F0AD030F0004C36
:100E700018BF31F0004CD8D180EA010000F00040EA
:100E8000704790F0000F17BF90F0004F084691F0A8
:100E9000000F91F0004F14D092EA0C0F01D14202E2
:100EA0000FD193EA0C0F03D14B0218BF084608D1AB
:100EB00080EA010000F0004040F0FE4040F40000F5
:100EC000704740F0FE4040F4400070474FF0FF0C88
:100ED0001CEAD0521EBF1CEAD15392EA0C0F93EACF
:100EE0000C0F69D0A2EB030280EA010C49024FEA21
:100EF000402037D04FF0805343EA111143EA1013DA
:100F00000CF000408B4238BF5B0042F17D024FF491
:100F1000000C8B4224BF5B1A40EA0C00B3EB510F6C
:100F200024BFA3EB510340EA5C00B3EB910F24BF55
:100F3000A3EB910340EA9C00B3EBD10F24BFA3EBDA
:100F4000D10340EADC001B0118BF5FEA1C1CE0D1A2
:100F5000FD2A3FF650AF8B4240EBC25008BF20F055
:100F6000010070470CF0004C4CEA50207F32C2BFA9
:100F7000D2F1FF0340EAC250704740F400004FF046
:100F80000003013A37E792F0000F00F0004C02BF77
:100F9000400010F4000F013AF9D040EA0C0093F041
:100FA000000F01F0004C02BF490011F4000F013B9B
:100FB000F9D041EA0C0195E70CEAD15392EA0C0F03
:100FC00008D142027FF47DAF93EA0C0F7FF470AF3B
:100FD000084676E793EA0C0F04D14B023FF44CAF7E
:100FE00008466EE730F0004C18BF31F0004CCAD113
:100FF00030F000427FF45CAF31F000437FF43CAF4F
:101000005FE700BF4FEA4002B2F1FE4F0FD34FF04F
:101010009E03B3EB12620DD94FEA002343F0004365
:1010200010F0004F23FA02F018BF404270474FF013
:101030000000704712F1610F01D1420205D110F09A
:10104000004008BF6FF0004070474FF0000070474D
:1010500080B483B000AF244B1B68234A43F00403E1
:101060001360224B1B68214A23F0F00313601F4BCF
:101070001E4A1B6813601E4B1B681D4A43F4602305
:101080001360194B1B68184A43F400731360194B23
:101090001B68184A43F018031360174B164A1B6865
:1010A0001360164B1B68154A43F001031360104B85
:1010B0001B680F4A43F00103136000237B6002E0CA
:1010C0007B6801337B607B6842F20F729342F7DDED
:1010D000074B1B68064A43F00103136000BF0C373F
:1010E000BD4680BC704700BF181002400008014098
:1010F00008240140102401402C24014034240140E4
:1011000080B400AF0C4B1B680B4A43F00103136023
:10111000094B1B68084A43F48003136000BF074B68
:101120001B6803F00203002BF9D0054B1B689BB230
:101130001846BD4680BC7047082401400024014089
:101140004C24014000000000B0B584B000AFFFF7B0
:10115000D7FF0346FB81FB891846FFF763F93CA3E1
:10116000D3E90023FFF7C8F902460B46104619469B
:10117000FFF79AFC034640491846FFF7A7FE0346CF
:10118000BB60B868FFF760F902460B4630A1D1E9B1
:101190000001FEF7F9FF02460B46104619462EA342
:1011A000D3E90023FFF7A8F902460B4614461D4673
:1011B000B868FFF749F902460B4620462946FFF773
:1011C000C5FA02460B4610461946FFF76DFC03466A
:1011D0007B602A497868FFF779FE03461846FFF7D7
:1011E00033F902460B461046194604F0A9FA1CA32F
:1011F000D3E90023FFF7AAFA02460B461046194628
:1012000019A3D3E90023FEF7C1FF02460B464FF0B6
:1012100000001B49FFF79AFA02460B461046194692
:10122000FFF742FC03463B603868FFF70DF910A357
:10123000D3E90023FEF7A8FF02460B4610461946E5
:10124000FFF732FC034618461037BD46B0BD00BF5D
:101250006666666666660A40000000000088C34055
:10126000000000000068AA4083DBB5DCE1796B3F39
:10127000666666666612714000F07F4500401C4657
:101280000000F03F80B400AF124B1B68114A43F0DE
:101290000103136000BF0F4B1B6803F00203002B18
:1012A000F9D00D4B1B680C4A23F47F5323F0330312
:1012B0001360094B084A1B68136000BF064B1B688C
:1012C00003F00C03002BF9D100BF00BFBD4680BC6A
:1012D000704700BF001002400410024080B400AF0D
:1012E0000B4B1B6803F08003002B0CD0094B0A4A00
:1012F0001A60084B094A1A6000BF054B1B6803F0CF
:101300008003002BF9D100BFBD4680BC704700BFF1
:10131000102002400420024023016745AB89EFCD35
:1013200080B400AF044B1B68034A43F08003136092
:1013300000BFBD4680BC70471020024080B483B01F
:1013400000AF786000BF134B1B6803F08003002BD5
:10135000F9D1104B1B680F4A43F0020313600E4A89
:101360007B6813600B4B1B680A4A43F04003136011
:1013700000BF0A4B1B6803F00103002BF9D1054B9A
:101380001B68044A23F00203136000BF0C37BD46FC
:1013900080BC704710200240142002400C20024004
:1013A00080B483B000AF78600B467B8000BF104BE9
:1013B0001B6803F08003002BF9D10D4B1B680C4A0E
:1013C00043F0010313607B687A881A8000BF094BE1
:1013D0001B6803F00103002BF9D1054B1B68044A7D
:1013E00023F00103136000BF0C37BD4680BC70477B
:1013F000102002400C20024080B586B000AF78601B
:1014000039601C4B1B681B4A23F0070313603868C4
:10141000FEF7AEFE034601333B61FFF75FFF7868DE
:10142000FFF78CFF00237B611AE03A687B69134465
:101430001B781AB27B69013339680B441B781BB2E5
:101440001B021BB213431BB2FB817A687B691344F6
:10145000FA8911461846FFF7A3FF7B6902337B61C7
:101460007A693B699A42E0D3FFF75AFF00BF183709
:10147000BD4680BD0020024080B400AF164B1B6803
:10148000154A43F002031360144B41F63F721A6091
:10149000134B40F2E7321A60124B00221A60124BD3
:1014A0001B68114A43F001031360104B1B680F4A7D
:1014B00023F0010313600E4B1B680D4A43F00053E9
:1014C00013600C4B1B680B4A43F00103136000BF11
:1014D000BD4680BC704700BF1C100240280400407D
:1014E0002C040040240400400C0400401004004080
:1014F00000E100E00004004080B400AF1F4B1B6817
:101500001E4A23F4702313601C4B1B681B4A23F4F0
:1015100070031360194B1B68184A43F4803313603F
:10152000164B1B68154A43F480131360144B1B6859
:10153000134A43F004031360124B41F63F721A60E2
:10154000114B40F2E7321A60104B00221A60104B28
:101550001B680F4A43F0010313600E4B1B680D4AD2
:1015600023F0010313600C4B1B680B4A43F08043CC
:10157000136000BFBD4680BC704700BF000801403B
:101580001C100240280800402C080040240800409D
:101590000C0800401008004000E100E080B400AFFB
:1015A0000D4B1B680C4A43F4006313600B4B41F670
:1015B0003F721A600A4B41F287321A60094B0022CF
:1015C0001A60094B1B68084A23F00103136000BF2F
:1015D000BD4680BC704700BF18100240282C014057
:1015E0002C2C0140242C0140102C014080B485B0EB
:1015F00000AF78600023FB6002E0FB680133FB6012
:101600007B684FF4FA6202FB03F3FA689A42F4D360
:1016100000BF00BF1437BD4680BC704780B483B0A4
:1016200000AF78600B46FB70FB78002B0AD00D4BA7
:101630001B6801217A6801FA02F21146094A0B433C
:1016400013600AE0074B1B6801217A6801FA02F275
:10165000D2431146034A0B40136000BF0C37BD460E
:1016600080BC70470C08014080B500AF174B1B6869
:10167000164A43F004031360154B1B68144A03F029
:1016800070431360124B1A681149124B13430B60DD
:1016900000210B20FFF7C2FF00210C20FFF7BEFF47
:1016A00000210D20FFF7BAFF00210E20FFF7B6FF43
:1016B00000210820FFF7B2FF00210920FFF7AEFF4D
:1016C00000210A20FFF7AAFF00BF80BD18100240CA
:1016D000040801401111110180B500AF01210A2059
:1016E000FFF79CFF00210A20FFF798FF00BF80BD95
:1016F00080B582B000AF0346FB71FB7903F00103B4
:10170000DBB219460B20FFF789FFFB795B08DBB2E0
:1017100003F00103DBB219460C20FFF77FFFFB79D2
:101720009B08DBB203F00103DBB219460D20FFF783
:1017300075FFFB79DB08DBB203F00103DBB219466E
:101740000E20FFF76BFF00BF0837BD4680BD80B598
:1017500082B000AF0346FB71FB791B09DBB2184670
:10176000FFF7C6FFFFF7B8FFFB791846FFF7C0FF8A
:10177000FFF7B2FF00BF0837BD4680BD80B500AFA0
:101780000120FFF7E4FF0120FFF730FF00BF80BD1D
:1017900080B500AFFFF768FF0020FFF7A9FF002129
:1017A0000820FFF73BFF0320FFF7A2FFFFF794FF9E
:1017B000FFF792FFFFF790FF0220FFF799FFFFF777
:1017C0008BFF2820FFF7C3FF0E20FFF7C0FF062086
:1017D000FFF7BDFF0120FFF7BAFF00BF80BD80B556
:1017E00084B000AF03460A46FB711346BB71BB7958
:1017F000002B03D1FB79803BFB7313E0BB79012BFA
:1018000003D1FB79403BFB730CE0BB79022B03D186
:10181000FB796C3BFB7305E0BB79032B02D1FB79B1
:101820002C3BFB73FB7B1846FFF791FF00BF103783
:10183000BD4680BD80B582B000AF0346FB7101217B
:101840000820FFF7EBFEFB791846FFF780FF002129
:101850000820FFF7E3FE00BF0837BD4680BD80B516
:1018600082B000AF786007E07B681B781846FFF70E
:10187000E1FF7B6801337B607B681B78002BF3D131
:1018800000BF00BF0837BD4680BD000080B582B0F4
:1018900000AF7860FFF772FF1348FFF7E0FF012108
:1018A0000120FFF79CFF1148FFF7D9FF022101201B
:1018B000FFF795FF0E48FFF7D2FF03210120FFF746
:1018C0008EFF0C48FFF7CBFF7B68DBB20133DBB246
:1018D00019460020FFF783FF3E20FFF7ABFF00BF54
:1018E0000837BD4680BD00BF305B0008485B00087C
:1018F000585B0008685B000880B586B000AF786070
:1019000008237B6100F0C6FC0346FB7429E000F06D
:10191000C1FC0346FB74FB7C2F2B22D9FB7C392BAB
:101920001FD8FB7C1846FFF785FF7B69072B11DC6E
:101930000123FB600BE0FB687A681A44FB68013BFB
:1019400079680B4412781A70FB680133FB60FB68FE
:10195000082BF0DD7B680833FA7C1A707B69013B49
:101960007B61FB7C3D2B02D0FB7C432BCFD1FB7CEE
:1019700018461837BD4680BD80B590B004AF002131
:101980000020FFF72CFF154B1B68FB62134B5B68B5
:10199000BB62124B9B687B62104BDB683B62104B57
:1019A0001B681846FEF750FD02460B46381DCDE970
:1019B00002233B6A01937B6A0093BB6AFA6A094976
:1019C00001F080FD0C20FFF7C2FE3B1D1846FFF71B
:1019D00046FF00BF3037BD4680BD00BF0800002075
:1019E00028000020785B000890B591B002AF2B4B27
:1019F0001B6803F00103002B4CD0FFF7A5FB034647
:101A0000274A1360274B1B687B63264B5B683B634D
:101A1000244B9B68FB62234BDB68BB6207F10C0025
:101A2000BB6A0193FB6A00933B6B7A6B1E4901F022
:101A300049FD1B4B1B681846FFF7E4FA03467B621F
:101A4000174B1C68786AFFF739F903461946204698
:101A5000FFF77EF8034615491846FFF783F903465A
:101A60001846FFF7CFFA03463B6238463B6A7A6A6C
:101A70000F4901F027FD07F10C03184600F03EFF67
:101A80003B46184600F03AFF044B1B68034A23F01C
:101A90000103136000BF3C37BD4690BD10040040F9
:101AA0002800002008000020905B00080000C842C9
:101AB000A45B000880B400AF2D4B1B6803F001034A
:101AC000002B50D02B4B1B6801332A4A13602A4B42
:101AD0005A68284B1B689A4219D1284B1B68274A21
:101AE00043F010031360254B1B68244A23F02003A6
:101AF0001360214B9B68224A82FB03125211DB17B1
:101B0000D31A4FF47A7203FB02F21E4B1A601A4B7F
:101B10005A68194BDB681A44164B1B689A421CD151
:101B2000164B1B68154A43F020031360134B1B68C8
:101B3000124A23F0100313600F4B1B68104A82FBFC
:101B400003125211DB17D31A4FF47A7203FB02F21D
:101B50000C4B1A60074B00221A60054B1B68044AA5
:101B600023F00103136000BFBD4680BC704700BF77
:101B7000100800402C000020080000200C08014044
:101B80001F85EB513400004080B5A4B004AFFFF7CF
:101B900079FB00F03BFE00F069FEFFF759FAFFF712
:101BA000F7FD00F049FB00F00BFDFFF765FCFFF7C8
:101BB000A3FCFFF7F3FCAE4B1B68AD4A43F02003D8
:101BC0001360AB4B1B68AA4A23F010031360A94BA8
:101BD0001B68A94A82FB03125211DB17D31A4FF478
:101BE0007A7203FB02F2A54B1A604FF080431B6828
:101BF0004FF0804243F001031360A14B1B68A04AE1
:101C000043F001031360FFF7B7FE00F043FB034608
:101C100087F86C3097F86C30432B40F0A882994BD2
:101C200000221A60984B1B68974A43F00103136027
:101C3000964B1B68954A23F00103136000F02AFBC2
:101C4000034687F87F3004E000F024FB034687F862
:101C50007F308E4B1B6803F00103002B03D197F8F4
:101C60007F30012BF0D0884B1B68874A23F001039B
:101C7000136097F87F303D2B40F079820E20FFF7FC
:101C800066FDFFF77BFD00210020FFF7A8FD8048DF
:101C9000FFF7E5FD002387F87E3049E001210020B1
:101CA000FFF79DFD0023BB671EE000F0F3FA03463B
:101CB00087F85A3097F85A30012B15D0754ABB6F08
:101CC000134497F85A201A7097F85A301846FFF7BD
:101CD000B1FDBB6FDBB20133DBB201211846FFF768
:101CE0007EFDBB6F0133BB67BB6F032BDDDD6A4B32
:101CF0001A78684B1B789A4215D1674B5A78654B16
:101D00005B789A420FD1644B9A78624B9B789A42E7
:101D100009D1614BDA785F4BDB789A4203D101231A
:101D200087F87E3004E0FFF729FD5C48FFF797FD58
:101D300097F87E3083F00103DBB2002BAED1002098
:101D4000FFF7A4FD00233B6780E100F0A3FA034600
:101D500087F877303B6F002B0CDB3B6F012B09DCE6
:101D600097F87730582B05D13B6F01333B67386FBD
:101D7000FFF78CFD3B6F002B0CDD3B6F022B09DC6A
:101D800097F87730252B05D13B6F013B3B67386FC8
:101D9000FFF77CFD97F877302B2B40F057813B6F96
:101DA000002B40F087803E4A07F1500307CA03C367
:101DB0001A803B4A07F1440307CA03C31A80FFF79E
:101DC000DDFC00210020FFF70AFD3648FFF747FD44
:101DD00001210020FFF703FD3348FFF740FD0221FA
:101DE0000020FFF7FCFC3148FFF739FD01210320FB
:101DF000FFF7F5FC00F04EFA034687F86F3007F165
:101E000050031846FFF778FD034687F86F3097F8C0
:101E10006F303D2B23D102210320FFF7E0FC07F1B7
:101E200044031846FFF768FD034687F86F3097F8BC
:101E30006F303D2B13D107F15003184600F09DFD84
:101E400003461B4A136007F14403184600F095FD52
:101E50000346174A5360386FFFF718FDF6E097F80E
:101E60006F30432BCBD1386FFFF710FDEEE000BF92
:101E70000C080140080000201F85EB513400004091
:101E800000080040242C0140002C0140102C01408F
:101E9000B05B00081402002000000020C05B0008B6
:101EA0007C5C0008D45B0008E85B0008EC5B000881
:101EB000180000203B6F012B63D1AE4A07F13803B5
:101EC00007CA03C31A80AB4A07F12C0307CA03C32E
:101ED0001A80FFF753FC00210020FFF780FCA64882
:101EE000FFF7BDFC01210020FFF779FCA348FFF7B5
:101EF000B6FC02210020FFF772FCA148FFF7AFFCFF
:101F000001210320FFF76BFC00F0C4F9034687F8BA
:101F10006E3007F138031846FFF7EEFC034687F8EA
:101F20006E3097F86E303D2B23D102210320FFF74E
:101F300056FC07F12C031846FFF7DEFC034687F832
:101F40006E3097F86E303D2B13D107F138031846E9
:101F500000F013FD03468B4A936007F12C031846EB
:101F600000F00BFD0346874AD360386FFFF78EFC05
:101F70006CE097F86E30432BCBD1386FFFF786FCBF
:101F800064E0002387F86D30FFF7F8FB00210020A4
:101F9000FFF725FC7C48FFF762FC01210020FFF7DA
:101FA0001EFC4CE0734A07F1200307CA03C31A80E2
:101FB00000F070F9034687F85B3007F120031846FC
:101FC000FFF79AFC034687F85B3097F85B303D2BB0
:101FD0002ED197F82430302B16D197F825206B4B53
:101FE0001A7097F82620694B5A7097F82720674B8C
:101FF0009A7097F82820654BDA70386FFFF746FC27
:10200000012387F86D3013E0FFF7B8FB00210020B3
:10201000FFF7E5FB5E48FFF722FC01210020FFF7F8
:10202000DEFB5C48FFF71BFC02210020FFF7D7FB1B
:1020300097F85B30432B02D1386FFFF727FC97F8F6
:102040006D3083F00103DBB2002BABD197F8773012
:102050003D2B7FF47AAE97F877303D2B40F08580AA
:10206000FFF78CFB00210020FFF7B9FB4A48FFF780
:10207000F6FB01210020FFF7B2FB4848FFF7EFFB1A
:1020800002210020FFF7ABFB4548FFF7E8FB0321E7
:102090000020FFF7A4FB4348FFF7E1FB04E000F05A
:1020A000F9F8034687F8773097F87730312B03D06B
:1020B00097F87730322BF2D197F87730312B34D133
:1020C000394B1B68BB66384B5B687B66364B9B683D
:1020D0003B66354BDB68FB65344B1B681846FEF7E7
:1020E000B3F902460B46381DCDE90223FB6D01937F
:1020F0003B6E00937B6EBA6E2D4901F0E3F92D4BD8
:102100001A6813469B0013449A00134403F10063BA
:1021100003F57C431A463B1D19461046FFF76CF940
:10212000244B1B680133234A1360164B1B681E4A5D
:102130001360144B5B681C4A5360124B9B681A4A2D
:102140009360104BDB68184AD360104B1A781A4B17
:102150001A700E4B5A78184B5A700C4B9A78164BD3
:102160009A700A4BDA78144BDA70FFF707FBFFF727
:1021700003FC4AE57C5C0008D45B0008F05B0008C7
:10218000F45B000818000020F85B00080400002041
:102190000C5C0008245C00083C5C0008505C0008F3
:1021A000645C00086C5C0008080000202800002027
:1021B000785B0008180200200000002080B483B083
:1021C00000AF78600B46FB70FB78002B0AD00D4BFC
:1021D0001B6801217A6801FA02F21146094A0B4391
:1021E00013600AE0074B1B6801217A6801FA02F2CA
:1021F000D2431146034A0B40136000BF0C37BD4663
:1022000080BC70470C0C014080B483B000AF786094
:10221000084B1B6801217A6801FA02F21340002B77
:1022200001D0012300E0002318460C37BD4680BCD6
:10223000704700BF080C014080B400AF124B1B6810
:10224000114A43F008031360104B1B680F4B002228
:102250001A600E4B1B680D4A43F4885343F0110378
:1022600013600A4B1B68094A43F0084343F4080310
:102270001360074B1B68064A43F0F003136000BF6E
:10228000BD4680BC704700BF18100240000C0140E2
:102290000C0C014080B500AF00210020FFF78EFF3D
:1022A00001210120FFF78AFF01210220FFF786FFAD
:1022B00001210320FFF782FF0420FFF7A5FF03465B
:1022C00083F00103DBB2002B0BD000BF0420FFF72B
:1022D0009BFF034683F00103DBB2002BF6D13723CB
:1022E0006BE10520FFF790FF034683F00103DBB2AB
:1022F000002B0BD000BF0520FFF786FF034683F0BD
:102300000103DBB2002BF6D1382356E10620FFF79C
:102310007BFF034683F00103DBB2002B0BD000BF31
:102320000620FFF771FF034683F00103DBB2002BA9
:10233000F6D1392341E10720FFF766FF034683F01A
:102340000103DBB2002B0BD000BF0720FFF75CFFBF
:10235000034683F00103DBB2002BF6D125232CE1E9
:1023600001210020FFF72AFF00210120FFF726FFAF
:1023700001210220FFF722FF01210320FFF71EFFAA
:102380000420FFF741FF034683F00103DBB2002B7B
:102390000BD000BF0420FFF737FF034683F0010393
:1023A000DBB2002BF6D1342307E10520FFF72CFF29
:1023B000034683F00103DBB2002B0BD000BF0520E6
:1023C000FFF722FF034683F00103DBB2002BF6D1B7
:1023D0003523F2E00620FFF717FF034683F00103E1
:1023E000DBB2002B0BD000BF0620FFF70DFF03462A
:1023F00083F00103DBB2002BF6D13623DDE00720AA
:10240000FFF702FF034683F00103DBB2002B0BD082
:1024100000BF0720FFF7F8FE034683F00103DBB29D
:10242000002BF6D15823C8E001210020FFF7C6FE9B
:1024300001210120FFF7C2FE00210220FFF7BEFEAE
:1024400001210320FFF7BAFE0420FFF7DDFE03465B
:1024500083F00103DBB2002B0BD000BF0420FFF799
:10246000D3FE034683F00103DBB2002BF6D1312308
:10247000A3E00520FFF7C8FE034683F00103DBB2AB
:10248000002B0BD000BF0520FFF7BEFE034683F0F4
:102490000103DBB2002BF6D132238EE00620FFF7DA
:1024A000B3FE034683F00103DBB2002B0BD000BF69
:1024B0000620FFF7A9FE034683F00103DBB2002BE1
:1024C000F6D1332379E00720FFF79EFE034683F021
:1024D0000103DBB2002B0BD000BF0720FFF794FEF7
:1024E000034683F00103DBB2002BF6D12D2364E019
:1024F00001210020FFF762FE01210120FFF75EFEAF
:1025000001210220FFF75AFE00210320FFF756FEAB
:102510000420FFF779FE034683F00103DBB2002BB2
:102520000BD000BF0420FFF76FFE034683F00103CA
:10253000DBB2002BF6D143233FE00520FFF764FE1A
:10254000034683F00103DBB2002B0BD000BF052054
:10255000FFF75AFE034683F00103DBB2002BF6D1EE
:1025600030232AE00620FFF74FFE034683F00103E5
:10257000DBB2002B0BD000BF0620FFF745FE034661
:1025800083F00103DBB2002BF6D13D2315E00720D9
:10259000FFF73AFE034683F00103DBB2002B0BD0BA
:1025A00000BF0720FFF730FE034683F00103DBB2D4
:1025B000002BF6D12B2300E00123184680BD00003C
:1025C00080B400AF1A4B1B68194A43F00103136033
:1025D000184B1B68174A43F004031360164B1B6823
:1025E000154A23F00F031360134B1B68124A43F084
:1025F00009031360114B9F221A60114B40F2E7321E
:102600001A60104B1B680F4A43F0600313600D4BB8
:102610001B680C4A43F0080313600B4B1B680A4A03
:1026200043F00103136000BFBD4680BC704700BF8C
:102630001C10024018100240000801402800004011
:102640002C000040180000402000004080B400AF83
:1026500001231846BD4680BC704780B582B000AFEC
:102660007860396000F0E6FF034616221A604FF0EA
:10267000FF3318460837BD4680BD80B582B000AF35
:1026800078604FF0FF317868FFF7E7FF00BFFDE7A4
:1026900080B586B000AFF860B9607A6000237B61D6
:1026A0000AE0AFF300800146BB685A1CBA60CAB2A8
:1026B0001A707B6901337B617A697B689A42F0DB2F
:1026C0007B6818461837BD4680BD80B586B000AF20
:1026D000F860B9607A6000237B6109E0BB685A1C2E
:1026E000BA601B781846AFF300807B6901337B61C9
:1026F0007A697B689A42F1DB7B6818461837BD46D9
:1027000080BD80B483B000AF78604FF0FF331846CF
:102710000C37BD4680BC704780B483B000AF786092
:1027200039603B684FF400525A60002318460C375A
:10273000BD4680BC704780B483B000AF7860012391
:1027400018460C37BD4680BC704780B485B000AFDA
:10275000F860B9607A60002318461437BD4680BC23
:102760007047000080B586B000AF7860144A154B02
:10277000D31A7B617B693B61134B1B68002B02D131
:10278000114B124A1A60104B1A687B6813443A695D
:102790009A4207D200F04EFF03460C221A604FF017
:1027A000FF3309E0084B1B68FB60074B1A687B6826
:1027B0001344054A1360FB6818461837BD4680BDB0
:1027C00000500020000400001C02002070030020C4
:1027D00080B400AF0B4B1B68002B04D0094B1B6867
:1027E000013B084A1360074B1B68002B05D1064BC1
:1027F0001B68054A23F00103136000BFBD4680BC7F
:10280000704700BF2002002010E000E080B400AF5D
:10281000114B1B68104A43F4003313600F4B40F216
:1028200041321A600E4B00221A600D4B1B680C4A95
:1028300043F4005343F0080313600A4B00221A606C
:10284000084B084A1B681360074B00221A6000BF40
:10285000BD4680BC704700BF1C10024008440040C9
:102860000C440040104400401444004080B400AFC9
:10287000104B1B680F4A43F0040313600E4B1B6898
:102880000D4A23F4706313600B4B1B680A4A43F430
:1028900020631360084B1B68074A23F470431360DE
:1028A000054B1B68044A43F48043136000BFBD46D8
:1028B00080BC7047181002400008014080B483B00B
:1028C00000AF0346FB7100BF0A4B1B6803F0800397
:1028D000002BF9D0084AFB79136000BF054B1B6839
:1028E00003F04003002BF9D000BF00BF0C37BD46FA
:1028F00080BC7047004400400444004080B582B072
:1029000000AF786006E07B685A1C7A601B78184636
:10291000FFF7D4FF7B681B78002BF4D100BF00BF0A
:102920000837BD4680BD00000D488546AFF30080E6
:102930000C480D490D4A002302E0D458C45004331A
:10294000C4188C42F9D30A4A0A4C002301E01360F0
:102950000432A242FBD300F073FEFFF715F9FEE745
:102960000050002000000020F8010020086000084E
:10297000F801002070030020FEE70A22002100F089
:102980007BB80000242B2DE9F0478646904601D8FD
:10299000012B06D100F04EFE162303600020BDE897
:1029A000F0870D4633482A4615F8014B065D16F0B0
:1029B0000806F8D12D2C10D101262C78951C33F067
:1029C000100215D1302C0DD12A7802F0DF02582ADE
:1029D00008D16C78023510230AE02B2C04BF2C7828
:1029E000951CECE7002BF6D1302C14BF0A230823EA
:1029F000002206F1004C0CF1FF3CBCFBF3F9104641
:102A000003FB19CAA4F13007092F0FD83C46A34293
:102A10001BDD571C07D0814514D301D1A24511DB22
:102A2000012200FB034015F8014BEBE7A4F141073D
:102A3000192F01D8373CEAE7A4F16107192F04D810
:102A4000573CE4E74FF0FF32EDE7531C08D1222357
:102A50006046CEF80030B8F1000FA0D0691E06E045
:102A600006B14042B8F1000F99D0002AF6D1C8F85B
:102A7000001094E7875C000813460A4601460248A6
:102A80000068FFF77FBF00BF3C000020002B2DE94E
:102A9000F0471D46BBBF03F100431D4600232D2315
:102AA00088B01446B8BF1446129A109E1370149B37
:102AB000DDF84CA023F02008B8F1460F05D0B8F19E
:102AC000450F00D10136022300E0032307AA049238
:102AD00006AACDE902A2CDE9003622462B4600F037
:102AE0006FFEB8F1470F074619D1119BDB070ED5D2
:102AF00000EB06090022002320462946FDF764FF6B
:102B000008B1CDF81C903022079B4B451ED33846A8
:102B1000079B159ADB1B136008B0BDE8F087B8F17E
:102B2000460F00EB0609E5D10378302B0AD10022CD
:102B3000002320462946FDF747FF18B9C6F10106D4
:102B4000CAF80060DAF800309944D3E7591C0791BD
:102B50001A70D9E7F7B50029B6BF2D232B234942B8
:102B600009290270437029DD0DF107031D460A276C
:102B7000B1FBF7F61A4607FB1614303402F8014C85
:102B80000C46632C314603F1FF33F1DC3031941EE7
:102B900003F8011C2346411CAB420AD30DF1090383
:102BA0009B1AAC4288BF002302330344181A03B0B7
:102BB000F0BD13F8016B01F8016FEDE73023303100
:102BC0008370C170031DF1E72DE9F04F91B00C4601
:102BD000DDF8688016461F46054600F0E1FC0368F4
:102BE00018460893FDF7C4FA00230E93D8F8003076
:102BF0000990073323F0070303F1080294F818A0A3
:102C0000D4F800B0C8F80020D3E9008929F00043C7
:102C10000B93CDF828804FF0FF32DDE90A01C4E9BB
:102C200012899C4BFDF702FF70BBDDE90A014FF0F2
:102C3000FF32984BFDF7DCFE30BB002200234046FC
:102C40004946FDF7CBFE10B12D2384F84330924A5C
:102C5000924BBAF1470F8CBF9046984603234FF032
:102C6000000923612BF004032360334621462846E4
:102C700000970FAA00F0D4F9013040F090804FF097
:102C8000FF3011B0BDE8F08F42464B464046494602
:102C9000FDF7CCFE48B14B46002BB8BF2D23804A30
:102CA000B8BF84F843307F4BD3E763680AF0DF0195
:102CB0005A1C3FD10623636000224BF480632360DB
:102CC00006920EAACDE904A20DAA03920DF13302D9
:102CD000CDE9013263684246009328464B460A918B
:102CE000FFF7D4FE0A99804647290D9928D1C81CC0
:102CF00002DB6368994240DDAAF1020A5FFA8AFAB0
:102D00005246013904F150000D91FFF723FF0E9A4E
:102D100081461318012A236102DC2268D20701D5FB
:102D2000013323619DF83330002B9ED02D2384F88E
:102D300043309AE74729BFD1002BBDD10123BAE721
:102D4000BAF1650FDCD9BAF1660F18D100296368B2
:102D50000BDD216113B92268D00702D501330B4482
:102D600023614FF00009A165DCE713B92268D2079F
:102D700001D50233F4E70123F2E74FF0670A0E9B17
:102D8000994205DB23682161D807EAD54B1CE7E7A8
:102D90000029CCBF0122C1F102021344E0E72368FD
:102DA0005A0507D42369424631462846B8470130C0
:102DB0002BD164E7BAF1650F40F2DC80D4E912014F
:102DC00000220023FDF700FE002833D00123314606
:102DD0002846354AB84701303FF451AFDDE90D3898
:102DE000434502DB2368D8070FD5DDE908233146C8
:102DF0002846B84701303FF442AF4FF0000908F1D0
:102E0000FF3804F11A0AC84509DC23689B0700F162
:102E10000281E0680F9B9842B8BF184631E7012352
:102E2000524631462846B84701303FF428AF09F1F1
:102E30000109E8E70D9B002B38DC012331462846C9
:102E4000194AB84701303FF41AAFDDE90D3959EAA4
:102E5000030302D12368D907D7D5DDE9082331461A
:102E60002846B84701303FF40AAF4FF0000A04F19A
:102E70001A0B0D9B5B42534501DC4B4693E7012344
:102E80005A4631462846B84701303FF4F8AE0AF1B9
:102E9000010AEEE7FFFFEF7F8B5D0008875D00080A
:102EA000935D00088F5D0008975D0008A36DDDF855
:102EB00038A05345A8BF5346002B994636DC4FF047
:102EC000000B29EAE97904F11A02A36D0A93A3EB36
:102ED00009035B4531DC0D9B9A453ADC2368DA0730
:102EE00037D40D9BAAEB03090A9BAAEB0303994570
:102EF000A8BF9946B9F1000F33DC4FF0000829EA6A
:102F0000E97904F11A0B0D9BAAEB0303A3EB090368
:102F100043457FF77AAF01235A4631462846B847E2
:102F200001303FF4ACAE08F10108ECE7424631460F
:102F30002846B8470130C2D1A1E6012331462846D0
:102F40000A92B84701303FF49AAE0A9A0BF1010B8E
:102F5000BBE73146DDE908232846B8470130C0D138
:102F60008DE60A9A4B46314628464244B84701301E
:102F7000C3D184E6DDF838A0BAF1010F01DCDB072C
:102F800036D50123424631462846B84701303FF442
:102F900076AEDDE9082331462846B84701303FF4D4
:102FA0006EAED4E91201002200230AF1FF3AFDF7C8
:102FB0000BFDC0B9534608F1010231462846B84717
:102FC00001300CD15BE601235A4631462846B8470A
:102FD00001303FF454AE08F10108D045F3DB4B4615
:102FE00004F15002E0E64FF0000804F11A0BF4E798
:102FF00001234246E1E701234A4631462846B847C5
:1030000001303FF43CAE08F10108E3680F995B1A08
:103010004345F0DCFDE64FF0000804F11909F4E740
:103020002DE9F047164698468A680B690746934291
:10303000B8BF1346336091F843200C46DDF820906A
:103040000AB1013333602368990642BF3368023303
:103050003360256815F0060506D104F1190AE36806
:1030600032689B1AAB422BDC94F843302268003B59
:1030700018BF0123920630D44146384604F143027A
:10308000C847013023D02368226903F00603042BCC
:1030900014BF002533684FF0000608BFE56804F14F
:1030A0001A0408BFED1A54F8123C08BF25EAE5756A
:1030B0009342C4BF9B1AED18B5421AD1002008E014
:1030C0000123524641463846C847013003D14FF0EC
:1030D000FF30BDE8F0870135C1E73020E11881F805
:1030E00043005A1C94F845102244023382F84310DE
:1030F000C2E70123224641463846C8470130E6D0A0
:103100000136D9E72DE9FF470F7E9146782F80469B
:103110000C469A460C9E01F1430207D8622F0AD84A
:10312000002F00F0D180582F00F0B88004F1420643
:1031300084F842703AE0A7F16303152BF6D801A199
:1031400051F823F09D310008B13100082D310008FD
:103150002D3100082D3100082D310008B131000853
:103160002D3100082D3100082D3100082D310008C7
:10317000AF320008DB310008693200082D31000849
:103180002D310008D13200082D310008DB31000854
:103190002D3100082D3100087132000833681A1DE6
:1031A0001B68326004F1420684F8423001239CE03F
:1031B00033682068191D3160060601D51D6803E0DB
:1031C0004506FBD5B3F90050002D03DA2D236D42DF
:1031D00084F843300A23584811E021683368080610
:1031E00053F8045B02D4490648BFADB26F2F336079
:1031F00014BF0A2308235048002184F8431066684E
:10320000002EA66005DB21682E4321F00401216019
:103210004BD01646B5FBF3F103FB1157C75D06F81B
:10322000017D2F46BB420D46F4D9082B0BD12368F4
:10323000DF0708D5236961689942DEBF302306F8AD
:10324000013C06F1FF36921B22614B462146404667
:10325000CDF800A003AAFFF7E3FE01304AD14FF0FA
:10326000FF3004B0BDE8F087236843F020032360FB
:103270007827324884F84570236831681F0651F872
:10328000045B02D45F0648BFADB23160D90744BFCA
:1032900043F0200323601DB11023ADE72648E9E782
:1032A000236823F020032360F6E71646BDE7336862
:1032B0002568181D616930602E061B6801D51960EC
:1032C00002E06806FBD51980002316462361BCE79F
:1032D000336800211A1D32601E686268304600F0B3
:1032E000D6F908B1801B606063682361002384F80D
:1032F0004330AAE73246494640462369D047013069
:10330000ADD023689B0713D4E068039B9842B8BFF5
:103310001846A6E70123324649464046D0470130C9
:103320009DD00135E36803995B1AAB42F2DCEBE711
:10333000002504F11906F5E7995D0008AA5D00086B
:10334000002310B50446C0E90033C0E904338360AC
:1033500081814366C2818361194608225C3000F096
:1033600016F90D4B246263620C4BA3620C4BE362B3
:103370000C4B23630C4B9C4206D003F16802944231
:1033800002D0D0339C4205D104F15800BDE8104072
:1033900000F07AB910BD00BF093500082B350008D0
:1033A000633500088735000824020020024A0349DB
:1033B000034800F069B800BF300000200950000841
:1033C0004000002041680C4B10B59942044601D0E2
:1033D00001F01AFEA168094B994202D0204601F083
:1033E00013FEE168064B994204D02046BDE8104028
:1033F00001F00ABE10BD00BF240200208C02002094
:10340000F402002010B50B4B0B4C0C4A20461A60FE
:1034100004210022FFF794FF04F168000122092132
:10342000FFF78EFF04F1D0000222BDE81040122108
:10343000FFF786BF5C03002024020020AD330008A4
:10344000014800F022B900BF65030020014800F0E8
:103450001DB900BF6503002010B50446FFF7F0FF5B
:10346000236A1BB1BDE81040FFF7F0BF044B236295
:10347000044B1B68002BF5D1FFF7C4FFF2E700BF38
:10348000C53300085C0300202DE9F8430746884651
:1034900014460026D4E90195B9F1010905D524683F
:1034A000002CF7D13046BDE8F883AB89012B07D952
:1034B000B5F90E30013303D029463846C0470643DC
:1034C0006835E9E70EB46FF0004110B500249DB0F7
:1034D0001FAB02900690079104910948094953F8DF
:1034E000042B0591006802A901931B9401F010FCC4
:1034F000029B1C701DB0BDE8104003B0704700BFB8
:103500003C0000200802FFFF10B50C46B1F90E1078
:1035100000F06CF80028ABBF636DA3891B1823F47F
:103520008053ACBF6365A38110BD2DE9F0411F46F8
:103530008B890546DB050C46164605D5022300227D
:10354000B1F90E1000F040F8A389324623F48053FD
:10355000A38128463B46B4F90E10BDE8F04100F0C7
:1035600057B810B50C46B1F90E1000F02DF8431CF9
:10357000A38915BF606523F4805343F48053A3816E
:1035800018BFA38110BDB1F90E1000F00DB80346AD
:103590000244934200D1704703F8011BF9E7000091
:1035A000004870477C01002038B50023054D0446D3
:1035B00008462B60FFF7A5F8431C02D12B6803B126
:1035C000236038BD6003002038B504460846114624
:1035D0000022054D2A601A46FFF7B7F8431C02D1B6
:1035E0002B6803B1236038BD6003002038B5044662
:1035F000084611460022054D2A601A46FFF748F892
:10360000431C02D12B6803B1236038BD6003002046
:1036100038B50446084611460022054D2A601A4670
:10362000FFF753F8431C02D12B6803B1236038BD68
:1036300060030020014B1868704700BF3C00002069
:1036400070B500260C4D0D4C641BA410A64209D188
:1036500002F060FA00260A4D0A4C641BA410A64230
:1036600005D170BD55F8043B98470136EEE755F893
:10367000043B98470136F2E700600008006000084C
:1036800000600008046000087047704770470346F8
:1036900010B5C9B202449342184601D1002003E09C
:1036A000047801338C42F6D110BD2DE9F74F036940
:1036B0000C690746A3427EDB013CA30000F1140520
:1036C00001F11408009305EB8403019358F82430AA
:1036D00055F8242001339A42B2FBF3F608EB840933
:1036E0002ED34FF0000AC446AE46D3465CF8043BE6
:1036F00098B206FB00A01B0C020C06FB0323DEF8AD
:10370000002080B292B2121A5A44DEF800004FEA4A
:10371000134A9BB2C3EB224303EB104392B242EA3B
:103720000342E1454FEA234B4EF8042BDED2009BC7
:10373000EB582BB9019B043B9D421A462FD33C61A9
:10374000384601F081F9002825DB2946002058F889
:10375000042BD1F800C01FFA82FE1FFA8CF3A3EBF2
:103760000E030344120CC2EB234202EB1C429BB239
:1037700043EA0243C1454FEA224041F8043BE6D206
:1037800055F8242005EB840322B9043B9D421A46D8
:103790000BD33C610136304603B0BDE8F08F1268B0
:1037A000043B002ACBD1013CC6E71268043B002A47
:1037B000EFD1013CEAE70020EEE700000000000046
:1037C0002DE9F04F14461D46C76997B08146CDE9F3
:1037D0000645239E7FB9102000F00EFE0246C9F870
:1037E0001C0020B9EF21AC4BAC4801F06DFCC0E9E6
:1037F00001770760C760D9F81C30196859B15A6859
:10380000012393404A608B60484600F0EBFE0022A3
:10381000D9F81C301A602B1EAFBF0023012223F001
:1038200000430793A8BF3360DDF81C809C4BB8BFF2
:10383000326033EA080312D142F20F73229A136006
:10384000C8F31303234300F05E85249BDFF854A2E2
:10385000002B00F060850AF1030300F05ABDDDE99A
:103860000623CDE90C23DDE90C0100220023FDF73E
:10387000ABF8074658B10123229A1360249B13B179
:10388000894B249A1360DFF824A200F044BD14ABE6
:10389000019315AB00934846DDE90C2301F084F950
:1038A000C8F30A560390002E78D0DDE90C010D9B79
:1038B000A6F2FF36C3F3130343F07F5343F44013E0
:1038C0001297194600227A4BFCF75EFC6CA3D3E9F1
:1038D0000023FCF711FE6CA3D3E90023FCF756FC90
:1038E000044630460D46FCF79DFD69A3D3E900234D
:1038F000FCF702FE02460B4620462946FCF746FC32
:1039000004460D46FDF7A8F800220746002320468E
:103910002946FDF763F840B13846FCF783FD22469F
:103920002B46FDF751F800B9013F162F54D8DDE9B9
:103930000C01604B03EBC703D3E90023FDF74EF8FE
:1039400000284BD00023013F0F93149B9B1B5A1E52
:1039500049BFC3F10103002304930023099254BF1C
:1039600004930993002F3BDB099B0E973B4409937B
:1039700000230A93209B092B65D8052BC4BF043B69
:103980002093209BC8BF0024A3F10203D8BF0124C9
:10399000032B64D8DFE803F05355382CDDE91463BA
:1039A0001E4406F23243202BC1BFC3F1400308FA84
:1039B00003F806F2124324FA03F3D6BFC3F120033F
:1039C00048EA030004FA03F0FCF71CFD0122A1F110
:1039D000F873013E129274E70123B5E70F90B4E744
:1039E000049BDB1B04937B420A9300230E93C1E7E5
:1039F00001230B93219B07EB030B0BF10103012B1D
:103A00000893B8BF012306E001230B93219B002BF1
:103A100028DD9B46089300210422D9F81C0002F1FE
:103A200014059D4226D94160484600F09BFD824620
:103A3000002843D1024640F2AF111F4BD4E60023C9
:103A4000E3E70023D5E7012400230B9420934FF0F4
:103A5000FF3B00221223CDF820B02192DBE70123A7
:103A60000B93F4E74FF0010B5B46CDF820B0CDF897
:103A700084B0D0E701315200D1E700BFAFF300803E
:103A800061436F63A787D23FB3C8608B288AC63F64
:103A9000FB799F501344D33FC85D0008DF5D0008E9
:103AA0000000F07FC45D0008985D0008975D000885
:103AB0000000F83F305F0008375E0008D9F81C307E
:103AC0001860089B0E2B00F2A180002C00F09E8055
:103AD000002F33DD9C4B07F00F0203EBC203F80508
:103AE000D3E90034CDE910344FEA271416D5DDE9C7
:103AF0000C01964B0326D3E90823FCF727FECDE9FA
:103B0000060104F00F04914D54B9DDE91023DDE9FD
:103B10000601FCF71BFECDE9060128E00226F2E7CC
:103B2000E10708D5DDE91001D5E90023FCF7E4FC45
:103B3000CDE91001013664100835E5E700F0AF80EB
:103B4000DDE90C017C42804B04F00F0203EBC20361
:103B5000D3E90023FCF7D0FC02260023CDE90601BF
:103B60007A4D2411002C40F08F80002BD3D1DDE959
:103B700006450F9B002B00F094800022204629462A
:103B8000734BFCF72BFF002800F08B80089B002B69
:103B900000F08780BBF1000F34DD2046002229466B
:103BA0006C4BFCF7A9FC5C46CDE9060107F1FF3838
:103BB00001363046FCF736FCDDE90623FCF79CFCB9
:103BC0000022654BFCF7E2FA0546A1F15076002C85
:103BD0006AD1DDE906010022604BFCF7D5FA024606
:103BE0000B46CDE906232A463346FCF715FF00288D
:103BF00040F09882DDE906012A4606F10043FCF711
:103C0000EDFE38BBDDE90C34CDE90634159B002B05
:103C1000C0F257810E2F00F354814B4B03EBC703C7
:103C2000D3E90034CDE90434219B002B80F2E580F8
:103C3000089B002B00F3E1800CD1DDE90401002298
:103C4000464BFCF759FCDDE90623FCF7DBFE0028B8
:103C500000F0668200242546219B56466FEA030841
:103C600000272146484600F0BDFC002D00F0BD8035
:103C70002FB1AF4203D03946484600F0B3FC294685
:103C8000484600F0AFFCB0E0E20705D5D5E90023D7
:103C9000FCF732FC012301366410083562E7022686
:103CA00065E7B846089C84E7274B0B9903EBC403F0
:103CB00053E902235444002954D000202849FCF73A
:103CC00045FD33462A46FCF75FFA5646CDE910011A
:103CD000DDE90601FCF7C0FE0546FCF7A3FB024642
:103CE0000B46DDE90601FCF74FFA02460B4630357C
:103CF000CDE90623DDE9102306F8015BFCF76EFE33
:103D0000002872D1DDE9062300201149FCF73CFAB6
:103D1000DDE91023FCF762FE002840F0B480A642E3
:103D20003FF470AFDDE9100100220A4BFCF7E4FB21
:103D30000022CDE91001DDE90601064BFCF7DCFBB2
:103D4000CDE90601C4E700BF305F0008085F000846
:103D50000000F03F0000244000001C400000144020
:103D60000000E03F31462846FCF7C6FB5646CDE949
:103D700010011394DDE90601FCF76EFE0546FCF721
:103D800051FB02460B46DDE90601FCF7FDF9024650
:103D90000B46303506F8015BA642CDE906234FF00D
:103DA000000224D1DDE91001AE4BFCF7EFF9024629
:103DB0000B46DDE90601FCF72FFE002863D1DDE9A3
:103DC00010230020A749FCF7DFF902460B46DDE986
:103DD0000601FCF703FE00283FF414AF139E731E88
:103DE000139316F8013C302BF8D047463BE09E4B2E
:103DF000FCF782FBCDE90601BCE75646DDE9064546
:103E0000DDE9042320462946FCF7A0FCFCF724FE4C
:103E10008046FCF707FBDDE90423FCF76DFB024657
:103E20000B4620462946FCF7AFF908F13004089DFF
:103E300006F8014BA6EB0A04A54202460B4633D115
:103E4000FCF7A4F9DDE9042304460D46FCF7E4FD84
:103E5000C0B9DDE9042320462946FCF7B5FD10B1C1
:103E600018F0010F0ED14846039900F0BBFB002368
:103E70003370229B01371F60249B002B00F04B8284
:103E80001E6048E2B84633461E4613F8012D392A13
:103E900006D19A45F8D1302208F101088AF80020AD
:103EA0001A7801321A70A0E700226F4BFCF724FB4E
:103EB0000022002304460D46FCF786FD00289FD013
:103EC000D1E70B9A002A00F0EA80209A012A00F339
:103ED000CD80129A002A00F0C18003F233430A9C7D
:103EE000049E049A01211A440492099A48461A44ED
:103EF000099200F02BFC054666B1099B002B09DDF9
:103F0000B342A8BF3346049AF61AD21A0492099A09
:103F1000D31A09930A9B0BB30B9B002B00F0C680AE
:103F2000002C00F0C08029462246484600F0C6FC1E
:103F3000039A01460546484600F01EFC0399804658
:103F4000484600F04FFB0A9B1B1B0A9300F0B18010
:103F500041460A9A484600F0B1FC039001214846C8
:103F600000F0F4FB0E9B0446002B00F0D8811A46AB
:103F70000146484600F0A2FC209B0446012B00F3BA
:103F80009F80069B002B40F09780079BC3F3130391
:103F9000002B40F09380079B23F000431B0D1B0573
:103FA00033B1049B01330493099B0133099301232B
:103FB0000A930E9B002B00F0B881236904EB830366
:103FC000186900F077FBC0F12000099B184410F03D
:103FD0001F0000F08280C0F12003042B73DD049BDE
:103FE000C0F11C0003440493099B06440344099355
:103FF000049B002B05DD1A464846039900F0B8FCE7
:104000000390099B002B05DD21461A46484600F027
:10401000AFFC04460F9B002B61D02146039800F0B3
:1040200013FD00285BDA00230A224846039900F0BA
:10403000FBFA0B9B07F1FF380390002B00F0778110
:10404000294600230A22484600F0EEFABBF1000F91
:1040500005466FDC209B022B49DC6BE0149BC3F10F
:1040600036033CE70000E03F00002440089B5C1E54
:104070000A9BA34209DB1C1B089B002BBFF630AF39
:10408000049B089A9E1A00232BE70A9B0E9AE31AB8
:104090001A440A94049E0024089B0E9221E70A9C6D
:1040A000049E0B9D28E7DDF80C8051E70A9A0399DE
:1040B00050E7CDF80C8051E7002379E7069B77E7BE
:1040C00000230A9379E793D0049A1C331A4404928C
:1040D000099A1E441A4409928AE70346F4E7089BAA
:1040E000B846002B20DC9B46209B022B1EDDBBF13B
:1040F000000F7FF4B1AD21465B460522484600F033
:1041000093FA01460446039800F09EFC00287FF7CE
:10411000A3AD5646312308F1010806F8013B9FE59F
:10412000B846089C2546F4E7DDF820B00B9B002B31
:1041300000F00181002E05DD29463246484600F098
:1041400017FC05460A9B002B5CD04846696800F0C6
:1041500009FA064628B9024640F2EF21804BFFF7E4
:1041600043BB2A6905F10C01023292000C3000F0C9
:104170009DFF01223146484600F0FAFB2F460546D6
:104180000AF1010304930AEB0B030A93069B03F065
:1041900001030993049B2146039803F1FF3BFFF7BA
:1041A00084FA034639463033069003980B9300F0A7
:1041B0004BFC2A4608902146484600F061FCC26844
:1041C00006460B9B02BB0146039800F03DFC0246ED
:1041D0000B9B31464846CDE90B3200F003FA209B99
:1041E0000C9A049E42EA0301099B19430B9B0DD1D3
:1041F000392B27D0089A002A01DD069B31338BF832
:1042000000302EE52846B9E70122E2E708990029A7
:1042100004DB209801430998014320D1002AEEDDF8
:10422000012203994846049300F0A2FB2146039023
:1042300000F00AFC0028049B02DCE0D1DA07DED59E
:10424000392BDAD139238BF8003033461E4616F865
:10425000012C013B392A4ED001321A7001E5002AA7
:1042600003DD392BEED00133C9E7049A0A9902F82D
:10427000013C8A4228D000230A220399484600F0D4
:10428000D3F9AF4203904FF000034FF00A023946D2
:10429000484607D100F0C8F907460546049B01339C
:1042A000049377E700F0C0F92946074600230A2265
:1042B000484600F0B9F90546F0E7BBF1000FCCBF66
:1042C0005E4601260027564401220399484604937E
:1042D00000F04EFB2146039000F0B6FB0028B4DC52
:1042E00002D1049BDB07B0D433461E4613F8012DE0
:1042F000302AFAD0B5E49A45A8D1312308F1010853
:104300008AF80030ADE4249BDFF858A01BB10AF115
:104310000803249A1360504617B0BDE8F08F209B25
:10432000012B7FF72EAE0E9B0A9301204DE6BBF1C9
:10433000000F7FF7D9AE564621460398FFF7B5F92F
:1043400000F1300306F8013BA6EB0A029345B4DD09
:1043500000230A224846039900F066F90390EBE730
:10436000375E0008BB5D000838B50546002940D01F
:1043700051F8043C0C1F002BB8BFE41800F0E6F81D
:104380001C4A136833B9636014602846BDE838409E
:1043900000F0E2B8A34208D9206821188B4201BF7F
:1043A00019685B6809182160EDE71A465B680BB174
:1043B000A342FAD911685018A0420BD120680144D9
:1043C000501883421160E0D118685B68084410609F
:1043D0005360DAE702D90C232B60D6E72068211856
:1043E0008B4201BF19685B680918216063605460E3
:1043F000CBE738BD6C030020024B0146186800F083
:1044000025B800BF3C00002070B50F4E0C46316847
:10441000054611B900F03AFE30602146284600F00A
:1044200035FE431C03D14FF0FF34204670BDC41C41
:1044300024F00304A042F8D0211A284600F026FEFA
:104440000130F2D1EFE700BF680300202DE9F84307
:10445000CD1C25F0030508350C2D38BF0C25002D8B
:10446000064601DBA94204D90C2333600020BDE8D5
:10447000F883DFF8D48000F069F8D8F800301C46E3
:1044800044BB29463046FFF7BFFF431C044658D1C2
:10449000D8F800402746002F43D1002C4BD023688A
:1044A0003946304604EB030900F0F0FD814542D166
:1044B000216830466D1A2946FFF7A6FF01303AD031
:1044C00023682B442360D8F800305A6862BBC8F8D0
:1044D00000700FE02268521B20D40B2A17D96119F3
:1044E000A342256018BF5960636808BFC8F8001070
:1044F00062514B60304600F02FF804F10B00231D91
:1045000020F00700C21A1CBF1B1AA350AFE7626855
:10451000A3420CBFC8F800205A60EBE7234664684A
:10452000AEE73C467F68B6E71A465B68A342FBD11C
:1045300000235360DEE70C233046336000F00CF8B4
:1045400094E70560D6E700BF6C0300200148FFF741
:104550009CB800BF640300200148FFF797B800BF74
:104560006403002070B5C66904460D4676B9102074
:10457000FFF742FF0246E06120B96B21174B184854
:1045800000F0A2FDC0E901660660C660E669F36856
:1045900083B1E369DB6853F82500B8B9012101FA5A
:1045A00005F6721D2046920000F0ACFD60B1C0E936
:1045B00001560EE021220421204600F0A3FDE3690C
:1045C000F060DB68002BE4D1002070BD026843F886
:1045D00025200023C0E90333F7E700BFC85D0008CA
:1045E000485E000870B5C66905460C4676B91020CD
:1045F000FFF702FF0246E86120B98F21084B094806
:1046000000F062FDC0E901660660C6603CB1EB697E
:104610006268DB6853F82210216043F8224070BDC5
:10462000C85D0008485E00082DE9F04107460C46C9
:104630001E4600200D6901F1140CDCF80030013039
:1046400099B202FB01611E0C0B0C02FB063389B20E
:1046500001EB034185424FEA13464CF8041BECDCA6
:104660000EB3A368AB4219DC616838460131FFF72D
:1046700079FF804628B90246BA210C4B0C4800F05D
:1046800023FD226904F10C01023292000C3000F08B
:104690000DFD21463846FFF7A5FF444604EB850390
:1046A00001355E6125612046BDE8F081375E000876
:1046B000485E00080346B0F5803F3ABF030410206F
:1046C0000020B3F1807F3CBF1B020830B3F1805F54
:1046D0003CBF1B010430B3F1804F3CBF9B00023054
:1046E000002B05DB13F0804F00F1010008BF2020F4
:1046F00070470368024613F007000BD0D90721D496
:10470000980749BF5B089B08012013605CBF02202B
:104710001360704799B209B910201B0CD9B209B9BE
:1047200008301B0A190704BF1B090430990704BF8E
:104730009B080230D90703D45B0800F1010003D0C5
:1047400013607047002070472020704710B50C465A
:104750000121FFF707FF024628B940F24511044B3B
:10476000044800F0B1FC01234461036110BD00BFA7
:10477000375E0008485E00082DE9F04F17460A69C9
:104780003B6989469A42A2BF3B460F4699463D691E
:10479000D9F810A0BB68796805EB0A06B34285B06A
:1047A000B8BF0131FFF7DEFE30B902464FF4B171F8
:1047B000404B414800F088FC00F1140423460022DD
:1047C00004EB860E734520D307F1140809F1140198
:1047D00008EB850501EB8A030293EB1B153B23F0E5
:1047E000030304331537BD4238BF04230193029BF2
:1047F00003918B420CD8002E03DD5EF8043D002BA4
:1048000055D0066105B0BDE8F08F43F8042BD9E719
:10481000B1F800A0BAF1000F1FD0C446A14600278E
:104820005CF8042BD9F800301FFA82FB9BB20AFB1C
:104830000B333B44D9F80070120C3F0C0AFB027298
:1048400002EB13429BB243EA024365454FEA12472B
:1048500049F8043BE4D8019BE750039B0431B3F8CB
:104860000290B9F1000F20D04746A4464FF0000A4D
:104870002368B7F800B0BCF802209BB209FB0B22FA
:10488000524443EA02434CF8043B57F8043B4FEAD6
:10489000134ABCF80030BD4209FB0A3303EB124354
:1048A0004FEA134AE5D8019AA35004349FE7013E2A
:1048B000A1E700BF375E0008485E00082DE9F84315
:1048C000154612F0030207460E4607D0254C013A62
:1048D000002354F82220FFF7A7FE0646AD103DD076
:1048E000FC697CB91020FFF787FD0246F86128B902
:1048F00040F2B3111C4B1D4800F0E6FBC0E9014437
:104900000460C460D7F81C80D8F808404CB940F265
:1049100071213846FFF71AFF00230446C8F8080043
:1049200003604FF00009EB070AD5314622463846AE
:10493000FFF722FF804631463846FFF753FE4646D2
:104940006D100BD0206838B9224621463846FFF753
:1049500013FF2060C0F800900446E4E73046BDE84D
:10496000F88300BFF85E0008C85D0008485E0008D4
:104970002DE9F0470C46074691462369496803EB49
:104980006218A3684FEA621A08F10106B3420BDB12
:104990003846FFF7E7FD054648B902464FF4EF7188
:1049A000274B284800F090FB01315B00EEE7002325
:1049B00000F1140100F110021846534533DB206961
:1049C0002AEAEA7A04F1140319F01F0901EB8A01BB
:1049D00003EB800C2BD08A460022C9F1200E186808
:1049E00000FA09F010434AF8040B53F8042B9C45D5
:1049F00022FA0EF2F3D8ACEB0403153B23F00303C9
:104A0000043304F11500604588BF0423CA500AB17D
:104A100008F10206013E384621462E61FFF7E2FD0D
:104A20002846BDE8F08742F8040F0133C5E7043992
:104A300053F8042B9C4541F8042FF9D8EAE700BF4E
:104A4000375E0008485E000803460A69006930B511
:104A5000801A0ED11433143103EB820401EB82016E
:104A600054F8045D51F8042D954203D005D24FF05F
:104A7000FF3030BDA342F3D3FBE70120F9E700008C
:104A80002DE9F74F89460646114648461446FFF77A
:104A9000DBFF051E12D129463046FFF763FD0246B3
:104AA00028B940F237213E4B3E4800F00DFB012370
:104AB000C0E90435104603B0BDE8F08FBCBF4B46DB
:104AC000A1463046D9F80410BABF1C46012500257E
:104AD000FFF748FD024618B940F24521304BE3E7A5
:104AE00000F1140BD9F8107009F11003C5604FF0F4
:104AF000000C09F11405D946266904F1140E05EBE2
:104B000087080EEB86060193019B5EF8040B53F8B1
:104B100004AF81B201931FFA8AF35B1A000C63445D
:104B2000C0EB1A4000EB23409BB243EA00437645BA
:104B30004FEA204C49F8043BE6D8331B153B23F0E1
:104B4000030315340433A64238BF04231D445B44D9
:104B50001E462C4644450ED308F10301491B21F0A3
:104B60000301033DA84538BF00210B4453F8041D41
:104B700099B117619EE7E64654F8041B1FFA81FCC1
:104B8000F444080C714400EB2C4089B241EA004126
:104B90004FEA204C46F8041BDCE7013FE6E700BF84
:104BA000375E0008485E00082DE9734301219046F6
:104BB0009946089EFFF7D6FC044630B9024640F2FB
:104BC0000F31234B234800F07FFAC9F30A55C9F38C
:104BD00013030DB143F480130193B8F1000324D003
:104BE00068460093FFF785FDDDE90012D8B1C0F1FA
:104BF000200302FA03F30B43C24063610192019B5D
:104C0000002B0CBF01220222A3612261ADB1A5F2EB
:104C1000334505443560C0F13500099B18602046D6
:104C200002B0BDE870836161E9E701A8FFF761FDAB
:104C3000019B012263612030E7E7A0F2324004EBE0
:104C4000820330601869FFF735FDC0EB4210E4E7DE
:104C5000375E0008485E00082DE9F0471F468E6861
:104C60008246BE420C4690460B682DD8B1F90C2006
:104C700012F4906F26D06569096905EB4505A3EB31
:104C8000010905EBD5757B1C4B446D109D4238BF67
:104C90001D46530527D52946FFF7D8FB064660B3C6
:104CA0004A46216900F002FAA38923F4906343F095
:104CB0008003A38126614E4426603E466561A5EBD4
:104CC0000905A560BE4200D93E46324641462068ED
:104CD00000F0C2F90020A3689B1BA3602368334443
:104CE0002360BDE8F0872A4600F032FA0646002825
:104CF000E0D150462169FFF737FB0C23CAF800309A
:104D0000A3894FF0FF3043F04003A381E9E700009F
:104D10002DE9F04F98468B8907461B060D46144631
:104D20009DB010D50B6973B94021FFF78FFB286048
:104D3000286130B90C233B604FF0FF301DB0BDE857
:104D4000F08F40236B610023099320238DF82930D5
:104D500030234FF00109CDF80C80DFF898818DF8F1
:104D60002A3023469A4613F8012B0AB1252AF9D195
:104D7000BAEB040B0BD05B46224629463846FFF7B8
:104D80006BFF013000F0A780099A5A4409929AF803
:104D90000030002B00F09F8000234FF0FF32CDE960
:104DA00005230AF1010A049307938DF853301A93EF
:104DB0005446052214F8011B4E48FEF768FC049A7D
:104DC000D8B9D00644BF20238DF85330110744BF13
:104DD0002B238DF853309AF800302A2B15D05446E7
:104DE00000204FF00A0C079A214611F8013B303B96
:104DF000092B4BD9B0B1079214E0A0EB080309FAD4
:104E000003F31343A2460493D2E7039B191D1B68C7
:104E10000391002BBBBF5B4242F002020793079352
:104E2000B8BF049223782E2B0AD163782A2B32D173
:104E3000039B02341A1D1B68039243EAE373059334
:104E4000DFF8B4A0032250462178FEF720FC38B1E9
:104E50004022049BA0EB0A008240134301340493D8
:104E600014F8011B062225488DF82810FEF70FFCC8
:104E7000002836D0224B1BBB039B073323F00703CC
:104E800008330393099B334409936AE70C460120D6
:104E90000CFB0232A8E700234FF00A0C194601343C
:104EA0000593204610F8012B303A092A03D9002B2C
:104EB000C6D00591C4E7044601230CFB0121F0E7AD
:104EC00003AB00932A4638460E4B04A9FDF77CFE3F
:104ED000421C0646D6D1AB895B063FF52DAF09983B
:104EE0002CE703AB00932A463846064B04A9FEF78D
:104EF00009F9EDE7A15E0008A75E0008AB5E0008B7
:104F0000C92B0008594C0008B1F90C20F8B5160758
:104F100005460C4654D44B68002B02DC0B6C002B6E
:104F200048DDE66A002E45D0002312F480522F6837
:104F3000216A2B6030D0626DA389590705D563685B
:104F4000D21A636B0BB1236CD21A00232846E66A8F
:104F5000216AB047431CA38906D129681D292BD893
:104F6000284ACA40D60727D5002262602269D904A0
:104F7000226004D5421C01D12B6803B96065616BC6
:104F80002F60B9B104F14403994202D02846FFF7DB
:104F9000EBF9002363630DE001232846B047024686
:104FA000501CC9D12B68002BC6D01D2B01D0162B4D
:104FB0001DD12F60002021E043F040031BB21AE016
:104FC0000F69002FF6D0930718BF00230E6808BFA3
:104FD0004B69F61B0F608B60002EEBDD33463A46C3
:104FE0002846216AD4F828C0E047002807DCB4F935
:104FF0000C3043F040034FF0FF30A381F8BD07446D
:10500000361AE9E70100402038B50B6905460C4621
:1050100013B90025284638BD18B1036A0BB9FEF74D
:105020001BFAB4F90C30002BF3D0626ED00704D415
:10503000990502D4A06DFEF728FB28462146FFF70C
:1050400063FF636E0546DA07E4D4A3899B05E1D4C8
:10505000A06DFEF71BFBDDE7884210B501EB0204F3
:1050600002D98442234607D8431EA14208D011F832
:10507000012B03F8012FF8E7014602448A4200D1D0
:1050800010BD13F8014D02F8014DF7E738B50023C4
:10509000054D044608462B60FDF764FB431C02D116
:1050A0002B6803B1236038BD600300200A4491429D
:1050B00000F1FF3300D1704710B511F8014B914258
:1050C00003F8014FF9D110BD1FB514461A46094B1C
:1050D00005461B68D8684CB1074BCDE901340091F7
:1050E0002B46064900F070F800F080F8044B1C468F
:1050F000F3E700BF3C000020BC5E0008C95E00086A
:10510000F75E000870B5A1FB025434B92946FFF7D9
:105110009DF9064628B9304670BD0C220026026073
:10512000F9E72A462146FEF732FAF4E782B001B9E0
:1051300001A942B14BB113780B601278101E18BF51
:10514000012002B070471046FBE76FF00100F8E75E
:105150002DE9F041074614460D4621B91146BDE838
:10516000F041FFF773B92AB9FFF7FEF82546284644
:10517000BDE8F08100F041F88442064602D8B4EB65
:10518000500FF4D821463846FFF760F9804608B939
:105190004546ECE7B4422246294628BF3246FFF78F
:1051A00085FF29463846FFF7DFF8F1E70346084652
:1051B00041B1FF2A04D98A224FF0FF301A607047AC
:1051C00001200A70704700000EB403B5014603AB1E
:1051D000054853F8042B0068019300F03DF802B035
:1051E0005DF804EB03B070473C000020062008B5D2
:1051F00000F006FA0120FDF740FA51F8043C181FB0
:10520000002BBCBF0B58C0187047936810B4013B0B
:10521000002B936007DA9469A34201DB0A2902D1CB
:1052200010BC00F031B91368581C106019700846A2
:1052300010BC7047F8B506460F461446D518AC4268
:1052400001D1002007E03A46304614F8011BFFF771
:10525000DCFF431CF3D1F8BD2DE9F04F0D46144699
:10526000984606469DB018B1036A0BB9FEF7F4F8EC
:105270006B6ED90705D4AB899A0502D4A86DFEF7E9
:1052800004FAAB891B0701D52B699BB92946304627
:1052900000F038F970B16B6EDC0704D54FF0FF30C9
:1052A0001DB0BDE8F08FAB899805F7D4A86DFEF767
:1052B000EDF9F3E70023099320238DF829303023FB
:1052C0004FF00109CDF80C80DFF8A8818DF82A3065
:1052D00023469A4613F8012B0AB1252AF9D1BAEBD5
:1052E000040B0BD05B46224629463046FFF7A2FF4F
:1052F000013000F0A780099A5A4409929AF80030C8
:10530000002B00F09F8000234FF0FF32CDE90523F2
:105310000AF1010A049307938DF853301A93544607
:10532000052214F8011B5348FEF7B1F9049AD8B9C5
:10533000D10644BF20238DF85330130744BF2B23DD
:105340008DF853309AF800302A2B15D0544600209F
:105350004FF00A0C079A214611F8013B303B092B0C
:105360004BD9B0B1079214E0A0EB080309FA03F39C
:105370001343A2460493D2E7039B191D1B680391B4
:10538000002BBBBF5B4242F0020207930793B8BFFA
:10539000049223782E2B0AD163782A2B32D1039BD7
:1053A00002341A1D1B68039243EAE3730593DFF886
:1053B000C8A0032250462178FEF769F938B140228F
:1053C000049BA0EB0A00824013430134049314F8B9
:1053D000011B062229488DF82810FEF758F90028ED
:1053E0003FD0274B1BBB039B073323F00703083336
:1053F0000393099B3B4409936AE70C4601200CFB8D
:105400000232A8E700234FF00A0C19460134059335
:10541000204610F8012B303A092A03D9002BC6D0B8
:105420000591C4E7044601230CFB0121F0E703AB1F
:1054300000932A463046134B04A9FDF7C5FB0746E7
:10544000781CD6D16B6ED90705D4AB899A0502D4E6
:10545000A86DFEF71BF9AB895B063FF51FAF0998F6
:105460001EE703AB00932A463046064B04A9FDF71E
:1054700049FEE4E7A15E0008A75E0008AB5E0008F5
:10548000C92B000835520008F8B50E4614460546EB
:1054900018B1036A0BB9FDF7DFFFA369A360A38905
:1054A0001A0701D5236943B92146284600F02AF896
:1054B00018B14FF0FF373846F8BD23682269F6B2BD
:1054C000981A63693746834205DC21462846FFF770
:1054D0009BFD0028EDD1A368013BA36023685A1C03
:1054E00022601E706269431C9A4204D0A389DB07C4
:1054F000E1D50A2EDFD121462846FFF785FD002899
:10550000D9D0D6E738B5294B054618680C4618B1EE
:10551000036A0BB9FDF7A0FFB4F90C30190722D4C8
:10552000DA0607D409222A6043F040034FF0FF3027
:10553000A38133E0580712D5616B41B104F14403F4
:10554000994202D02846FEF70FFF00236363A38928
:1055500023F02403A3810023636023692360A389CC
:1055600043F00803A38123694BB9A38903F4207393
:10557000B3F5007F03D02146284600F082F8B4F945
:105580000C3013F001020AD00022A260626952427C
:10559000A261226942B913F08000C5D138BD9907D4
:1055A00058BF6269A260F4E70020F7E73C000020E2
:1055B0001F2938B505460C4604D9162303604FF061
:1055C000FF3038BDC26B12B152F821304BB92846BA
:1055D00000F030F8224601462846BDE8384000F089
:1055E00017B8012B0AD0591C03D1162303600120E0
:1055F000E7E70021204642F8241098470020E0E722
:10560000024B01461868FFF7D3BF00BF3C000020E3
:1056100038B50023064D0446084611462B60FDF7B9
:105620001CF8431C02D12B6803B1236038BD00BFB6
:1056300060030020FDF70AB870B50C46B1F90E10F2
:10564000154600291E4696B00CDAA389002113F0F6
:10565000800F14BF40234FF48063002031602B6023
:1056600016B070BD6A4600F049F80028EDDB0199DC
:1056700001F47041A1F50053594259414FF4806340
:10568000EBE78B89F7B59D0706460C4607D504F175
:105690004703236023610123636103B0F0BD6A46C1
:1056A00001ABFFF7C9FF009F054639463046FEF7BC
:1056B000CDFE48B9B4F90C309A05EED423F00303BB
:1056C00043F00203A381E2E7A389C4E9040743F09E
:1056D0008003A381019B20605BB13046B4F90E10BA
:1056E00000F01EF828B1A38923F0030343F001035F
:1056F000A381A3891D43A581CFE7000038B500230E
:10570000064D0446084611462B60FDF705F8431C7C
:1057100002D12B6803B1236038BD00BF60030020B5
:1057200038B50023054D044608462B60FDF703F805
:10573000431C02D12B6803B1236038BD60030020F5
:10574000F8B504460D4600F033F8224606460F46EB
:105750002B4620462946FBF769F998B90022002319
:1057600020462946FBF758F960B90022002320465D
:105770002946FBF729F940B1FDF75CFF22230026FB
:10578000064F036030463946F8BDFDF753FF21232D
:1057900003600348BDE8F84000F004B80000F0FFE3
:1057A000F75E000800200149704700BF0000F87F45
:1057B0002DE9F04FB1F5801F02460B460D4687B02C
:1057C00024DA21F00044044308D100220023002001
:1057D000CB49FAF7BBFF07B0BDE8F08F002904DA28
:1057E000FAF7D2FC00220023F3E70022C54BFAF7B8
:1057F00083FE0B460D4602466FF03501C2488542D6
:1058000006DD10461946FAF7C1FCE4E70021F5E78A
:105810002C15A4F2FF34C5F313050C4405F515212E
:1058200001F6647101F4801686F07F5181F4401115
:1058300041EA0503104619460022B44BFAF7A4FCCE
:10584000AB1CC3F31303022B82468B464FF00002BE
:1058500004EB165453DC0023FBF7B6F8D0B1002C50
:1058600000F020812046FAF7DDFD91A3D3E9002363
:1058700006460F46FAF740FE8FA3D3E900230446FD
:105880000D4630463946FAF737FE02460B462046AB
:105890002946B8E78AA3D3E9002350465946FAF7C8
:1058A0002BFE02460B4600209949FAF76DFC524642
:1058B00006460F465B4650465946FAF71DFE02461D
:1058C0000B4630463946FAF717FE06460F4614B91E
:1058D00032463B46A0E02046FAF7A4FD74A3D3E984
:1058E000002380468946FAF707FE73A3D3E9002315
:1058F00004460D4640464946FAF7FEFDA5E04FF046
:105900008043FAF743FC02460B4650465946FAF7E5
:105910001DFFCDE900012046FAF784FDDDE90023F3
:10592000CDE9020110461946FAF7E6FD02460B469C
:10593000CDE90423FAF7E0FD63A3D3E90023804611
:105940008946FAF7D9FD62A3D3E90023FAF71EFCD2
:1059500042464B46FAF7D0FD5FA3D3E90023FAF79E
:1059600015FC42464B46FAF7C7FD5DA3D3E9002379
:10597000FAF70CFCDDE90423FAF7BEFD5AA3D3E9DC
:105980000023CDE9040140464946FAF7B5FD58A386
:10599000D3E90023FAF7FAFB42464B46FAF7ACFD8F
:1059A00055A3D3E90023FAF7F1FB42464B46FAF739
:1059B000A3FD02460B46DDE90401FAF7E7FBA5F576
:1059C000C226C5F5D725A6F27A4651353543002DB6
:1059D0008046894648DD00224D4B50465946FAF72D
:1059E0008BFD52465B46FAF787FD02460B4606469C
:1059F0000F4640464946FAF7C9FBDDE90023FAF7AE
:105A00007BFD8046894664B902460B4630463946DE
:105A1000FAF7BAFB02460B4650465946FAF7B4FB72
:105A2000D9E623A3D3E90023DDE90201FAF764FDF7
:105A300021A3D3E9002304460D46DDE90201FAF76C
:105A40005BFD42464B46FAF7A1FB02460B46304649
:105A50003946FAF799FB52465B46FAF795FB024640
:105A60000B4620462946D9E702460B465046594682
:105A7000FAF78AFBDDE90023FAF73EFD06460F46FA
:105A8000002C3FF425AF0AA3D3E90023DDE902018E
:105A9000FAF732FD08A3D3E9002304460D46DDE9F9
:105AA000020129E70020002195E600BFAFF3008046
:105AB0000000E0FE422EE63F763C7935EF39EA3DC4
:105AC000555555555555D53F44523EDF12F1C23F0D
:105AD000DE03CB966446C73F599322942449D23FB4
